:03000000020100FA
:0801000031303166319180FEBF
:1001300075900F78607A087BF1EBC4F59031A5A635
:10014000900B08DAF478607A087B01E6C4C39BF66A
:10015000080BDAF7786079707A04E6FB08E6C42BBE
:10016000F70908DAF522787079607A04E6C3941EFC
:100170005018E6C39414500EE6C3940A5004770155
:10018000800A770280067704800277080809DADCA3
:100190002278607A04E6C4F59031B008DAF7786026
:1001A0007A0480ED22C000780231B0D8FCD0002261
:1001B000C000781431BBD8FCD00022C00078FA31DE
:1001C000C6D8FCD00022C000780431D1D8FCD000C1
:0B01D00022C00078F4D8FED0002222EC
:00000001FF
