:030000000209B042
:0C09B000787FE4F6D8FD75812D0209F770
:100A3C0020456E7465722050617373776F726420F9
:100A4C0000436F72726563742050617373776F72B9
:100A5C00640020416363657373204772616E746533
:100A6C006420002057726F6E672050617373776F2C
:100A7C0072642000204163636573732044656E6962
:100A8C006564202000313541382A44362331323315
:0D0A9C004134353642373839432A3023447F
:100B6B00022300000225000002270001021B0000E7
:100AA900E4F5A0C282C280C2817F38FE120B4712D0
:100AB9000AE57F067E00120B47120AE57F0C7E00CD
:100AC900120B47120AE57F017E00120B47120AE555
:070AD9007F807E00020B4745
:090AE0007E00120B477F047E002A
:100AE900E4FDFCC3ED9FEC9E5015E4FBFA0BBB0043
:0F0AF900010ABA01F8BB7EF50DBD00010C80E4C7
:010B080022CA
:100B4700C280C281D2828FA07F0A7E00120AE9C2C8
:020B57008222F8
:100B5900D280C281D2828FA07F0A7E00120AE9C2A6
:020B69008222E6
:100B09008B2B8A2C892DAB2BAA2CA92D120B2E608D
:100B190013052DE52D7002052C14F9120B2EFF1269
:050B29000B5980E222DF
:10080000120AA97F80120AE07BFF7A0A793C120B58
:10081000097FC0120AE0E4F521F522E4F523F5246E
:10082000F525F526F52775280175B00FE526452530
:100830007052E5244523701475B00FE5B0540FF5E0
:100840001FB40FEE75230075240180E6E5286401CE
:100850004527701475B00FE5B0540FF51F640F6095
:10086000EBE4F527F52880E47F147E00120AE97591
:10087000B00FE5B0540FF51F640F60B0752500751B
:10088000260180A875B00F85B01F75B0F085B02027
:10089000E51FB40705E4F508F509E51FB40B067577
:1008A0000800750901E51FB40D06750800750902F9
:1008B000E51FB40E06750800750903E520B470063F
:1008C000751D00751E03E520B4B006751D00751E6C
:1008D00002E520B4D006751D00751E01E520B4E0C8
:1008E00005E4F51DF51EAE1DE51E7802C333CE33BB
:1008F000CED8F92499F582740A3EF583E58225095C
:10090000F582E5833508F583E493F5127413252207
:10091000F8A612AF12120B590522E522700205212A
:10092000C39408E52164809480500302081B7F0172
:100930007E00120B47E4F529F52A7413252AF8E600
:10094000FF7491252AF582740A3529F583E4936FA3
:100950006006751B00751C01052AE52A7002052931
:100960006408452970D4E51C6401451B701D7F8017
:10097000FE120AE27BFF7A0A796F120B097FC0121E
:100980000AE07BFF7A0A7980120B09E51C451B708F
:100990001D7F80FE120AE27BFF7A0A794D120B0955
:1009A0007FC0120AE07BFF7A0A795E120B0980FE93
:1009BC00020800E493A3F8E493A34003F68001F249
:1009CC0008DFF48029E493A3F85407240CC8C3333C
:1009DC00C4540F4420C8834004F456800146F6DF0B
:1009EC00E4800B0102040810204080900B6BE47E25
:1009FC00019360BCA3FF543F30E509541FFEE49300
:100A0C00A360010ECF54C025E060A840B8E493A3C6
:100A1C00FAE493A3F8E493A3C8C582C8CAC583CAF1
:100A2C00F0A3C8C582C8CAC583CADFE9DEE780BEA9
:010B7B000079
:100B2E00BB010689828A83E0225002E722BBFE02C5
:090B3E00E32289828A83E49322F8
:00000001FF
