:03000000020BD11F
:0C0BD100787FE4F6D8FD75812102080051
:100A3500202053544152542050524F4752414D208B
:100A450000202020464952535420494E50555420E9
:100A550020002020204E45585420494E5055542002
:100A6500202000202020534F5254494E472E2E2E31
:100A7500202020002020202020534F5254494E474B
:100A8500202020200020202020434F4D504C45544D
:100A950045442020200020204E554D4245522054EB
:100AA5004F2042452020002020202053454152431D
:100AB5004845442020202000202054484520494E08
:100AC50044455820495320200020202020204E5501
:100AD5004D424552202020202000202020204E4F2E
:0B0AE5005420464F554E4420202000B6
:100B3200E4F5A0C282C280C2817F38FE120BAD12E0
:100B42000B0E7F067E00120BAD120B0E7F0C7E0089
:100B5200120BAD120B0E7F017E00120BAD120B0EAB
:070B62007F807E00020BAD55
:100AF000851312E512C454F0F51275900F7FE87E4D
:100B000003120B128512907F807E00120BAD7F04C2
:020B10007E0065
:100B1200E4FDFCC3ED9FEC9E5015E4FBFA0BBB0019
:0F0B2200010ABA01F8BB7EF50DBD00010C80E49D
:010B310022A1
:100BAD00C280C281D2828FA07F0A7E00120B12C238
:020BBD00822292
:100BBF00D280C281D2828FA07F0A7E00120B12C216
:020BCF00822280
:060B69007BFF7A0A7957B8
:100B6F008B1F8A208921AB1FAA20A921120B946009
:100B7F00130521E5217002052014F9120B94FF12C1
:050B8F000BBF80E22213
:10080000120B3275900F120B077BFF7A0A793512A3
:100810000B6F7F887E13120B12120B077BFF7A0A75
:100820007946120B6F43900F7F887E13120B12854F
:100830009013E590540FF513F50CF512E512C4541E
:10084000F0F512F590120B07120B6943900F7F8899
:100850007E13120B12751400751501859013531336
:100860000F740C2515F8A613120AF0120B694390A9
:100870000F7F887E13120B120515E5157002051403
:10088000C39404E5146480948040D085901353137E
:100890000F851310120AF07BFF7A0A7968120B6F2A
:1008A0007F887E13120B1275900F120B077BFF7A55
:1008B0000A7979120B6F7FC0120B097BFF7A0A79D4
:1008C0008A120B6F7FE87E03120B12E4F518F519FC
:1008D000E4F516F517C374049519FFE49518FEC3E3
:1008E000E5179FEE6480F8E516648098502CAF17EA
:1008F000740D2FF8E6FE740C2FF8E6FFD39E40101F
:100900008E1EAE17740D2EF8A607740C2EF8A61EB8
:100910000517E5177002051680BB0519E519700269
:1009200005186404451870A8E4F51AF51B740C2525
:100930001BF8E6F512C454F0F512F5907F887E138B
:10094000120B1275900F7FE87E03120B12051BE548
:100950001B7002051AC39405E51A6480948040CD8B
:100960007590FF120B077BFF7A0A799B120B6F7F42
:10097000C0120B097BFF7A0A79AC120B6F43900F00
:100980007F887E13120B1285901353130F85131259
:10099000E512C454F0F512C4540FF5127F017E0025
:1009A000120BAD75900F7FE87E03120B12E4F50A6F
:1009B000F50BF51CF51D740C251DF8E6B5121C751C
:1009C0000A00750B01E51D2401F509E4351CF50845
:1009D000E5092430F511C454F0F511051DE51D702D
:1009E00002051C6405451C70CDE50B6401450A70C9
:1009F000197F80FE120B0B7BFF7A0A79BD120B6FF9
:100A00008511907F887E13120B12E50B450A702426
:100A10007F80FE120B0B7BFF7A0A79CE120B6F7F61
:100A2000C0120B097BFF7A0A79DF120B6F7F887E79
:050A300013120B12225D
:100B9400BB010689828A83E0225002E722BBFE025F
:090BA400E32289828A83E4932292
:00000001FF
