:0300000002093CB6
:0C093C00787FE4F6D8FD7581170209836E
:060AC10030303A30300035
:0B0AB50002130000050C30303A303016
:100A0A00E4F5A0C282C280C2817F38FE120A911226
:100A1A000A487F067E00120A91120A487F0C7E005D
:100A2A00120A91120A487F017E00120A91120A489C
:070A3A007F807E00020A919B
:0B0A41007F807E00120A917F047E007F
:100A4C00E4FDFCC3ED9FEC9E5015E4FBFA0BBB00E0
:0F0A5C00010ABA01F8BB7EF50DBD00010C80E464
:010A6B002268
:100A9100C280C281D2828FA07F0A7E00120A4CC21C
:020AA1008222AF
:100AA300D280C281D2828FA07F0A7E00120A4CC2FA
:020AB30082229D
:100A6C008B158A168917AB15AA16A91712080060E0
:100A7C00130517E5177002051614F9120800FF127A
:050A8C000AA380E22234
:03000B000208A444
:1008A400C0E0C0F0C0D075D000C000C004C005C016
:1008B40006C0070514E51470020513AE13FF7C008F
:1008C4007D3C1208198C088D09AE13AF147C007D91
:1008D4003C1208198E0A8F0BAE08AF097C007D0A02
:1008E400120819ED2430F510AE08AF097C007D0A1A
:1008F400120819EF2430F50F750E3AAE0AAF0B7CCF
:10090400007D0A120819ED2430F50DAE0AAF0B7CF8
:10091400007D0A120819EF2430F50C758CFF758AD6
:10092400C4D290D2B4D28CD007D006D005D004D093
:0809340000D0D0D0F0D0E03279
:1009C800120A0A120A417BFF7A0A79C1120A6C805C
:1009D80003209006D290D2B480F7758905758CFFF4
:1009E800758AC4D2A9D2AF309014D28C120A417B36
:1009F800007A00790C120A6CD290D2B480E9C28CC9
:020A080080CF9D
:100948000209C8E493A3F8E493A34003F68001F2F4
:1009580008DFF48029E493A3F85407240CC8C333B0
:10096800C4540F4420C8834004F456800146F6DF7F
:10097800E4800B0102040810204080900AB5E47E50
:10098800019360BCA3FF543F30E509541FFEE49374
:10099800A360010ECF54C025E060A840B8E493A33B
:1009A800FAE493A3F8E493A3C8C582C8CAC583CA66
:1009B800F0A3C8C582C8CAC583CADFE9DEE780BE1E
:010AC0000035
:10080000BB010689828A83E0225002E722BBFE02F6
:09081000E32289828A83E4932229
:10081900C2D5EC30E709B2D5E4C39DFDE49CFCEEFA
:1008290030E715B2D5E4C39FFFE49EFE12084FC31B
:10083900E49DFDE49CFC800312084F30D507C3E416
:060849009FFFE49EFE2269
:10084F00BC000BBE0029EF8DF084FFADF022E4CC8D
:10085F00F875F008EF2FFFEE33FEEC33FCEE9DEC56
:10086F00984005FCEE9DFE0FD5F0E9E4CEFD22ED9C
:10087F00F8F5F0EE8420D21CFEADF075F008EF2FE6
:10088F00FFED33FD4007985006D5F0F222C398FDD7
:05089F000FD5F0EA2274
:00000001FF
