:03000000020904EE
:0C090400787FE4F6D8FD75810A020885B2
:1008A60020202045453333372D3230323320202067
:1008B60000202020204E6174617368612020202072
:0108C6000031
:10080000E4F5A0C282C280C2817F38FE1208E012E5
:10081000083C7F067E001208E012083C7F0C7E0038
:100820001208E012083C7F017E001208E012083C2A
:070830007F807E000208E05A
:090837007E001208E07F047E003F
:10084000E4FDFCC3ED9FEC9E5015E4FBFA0BBB00EE
:0F085000010ABA01F8BB7EF50DBD00010C80E472
:01085F002276
:1008E000C280C281D2828FA07F0A7E00120840C2DD
:0208F000822262
:1008F200D280C281D2828FA07F0A7E00120840C2BB
:0209020082224F
:100860008B088A09890AAB08AA09A90A1208C76075
:1008700013050AE50A7002050914F91208C7FF12E8
:0508800008F280E222F5
:100885001208007F801208377BFF7A0879A61208C4
:10089500607FC01208377BFF7A0879B7120860803D
:0108A500FE54
:1008C700BB010689828A83E0225002E722BBFE022F
:0908D700E32289828A83E4932262
:00000001FF
